:020000023000CC
:10C00000807F0020E5F5030025F6030027F60300F6
:10C010000000000000000000000000000000000020
:10C0200000000000000000000000000079C20300D2
:10C0300000000000000000002BF603002DF60300B6
:10C040002FF603002FF603002FF603002FF6030050
:10C050002FF60300000000002FF603002FF6030068
:10C060002FF603002FF603002FF603002FF6030030
:10C070002FF603002FF603002FF603002FF6030020
:10C080002FF603002DC703002FF603002FF6030041
:10C09000E5C703002FF6030055F503002FF6030054
:10C0A0002FF603002FF60300000000000000000040
:10C0B0000000000000000000000000000000000080
:10C0C00010B5064C2378002B07D1054B002B02D06E
:10C0D000044800E000BF0123237010BD742C002031
:10C0E0000000000000F8030008B5084B002B03D047
:10C0F0000748084900E000BF07480368002B00D14B
:10C1000008BD064B002BFBD09847F9E70000000064
:10C1100000F80300782C0020702C002000000000A4
:10C12000164B002B00D1144B9D46402292029A1AC6
:10C13000924600218B460F461348144A121A00F00B
:10C1400067F80F4B002B00D098470E4B002B00D008
:10C1500098470020002104000D000D48002802D05F
:10C160000C4800E000BF00F02DF82000290000F08E
:10C1700013F900F011F8C04600000800807F00208D
:10C180000000000000000000742C0020A4340020F7
:10C190000000000000000000084B10B5041C002B3C
:10C1A00002D0002100E000BF054B1868836A002B15
:10C1B00000D09847201C00F033F8C0460000000073
:10C1C000D8F703000E4B70B500251E1C0D4CE41A69
:10C1D000A410A54204D0AB00F35898470135F8E706
:10C1E00003F0ECFA084B00251E1C084CE41AA410BE
:10C1F000A54204D0AB00F35898470135F8E770BD6D
:10C20000682C0020682C0020682C00206C2C00205A
:10C21000031C8218934202D019700133FAE7704769
:10C22000FEE7C04670B5002821D10D1C09680E2319
:10C2300000291AD00F4CA14210D0631A3B2B09D809
:10C240000B1C4A1E3C33934208D01E78601AC65419
:10C25000013BF8E7201C3C2203F09FFA201C3C2104
:10C26000002200F06DFF0023A0872B6001E0012376
:10C270000B6070BD807F00200323064A5B429E4511
:10C2800002D1EFF3098101E0EFF3088188690238F8
:10C290000078104725C2030070B50E23002812D085
:10C2A0000A4C061C3C21201C002200F049FFA58FEF
:10C2B0000B23854207D1301C211C3C2203F06DFA70
:10C2C00000230135A587181C70BDC046807F002063
:10C2D00013DF704718DF704710B58AB000211022B5
:10C2E00001A8FFF795FF022368461E490422019327
:10C2F00003F053FA01A8FFF7EDFF002801D000F08A
:10C30000C3F8F0208002FFF7E3FF002801D000F01F
:10C31000BBF8684614494822144B03F0CBF80028B8
:10C3200001D000F0B1F8012005AC011C221C03F083
:10C3300021F9002801D000F0A7F80122237B201C5E
:10C340001343237303F02EF9002801D000F09CF86A
:10C35000074803F0F5F8002801D000F095F80AB07E
:10C3600010BDC046DCF70300E02D0020D1F503002E
:10C3700075C3030008B502F083F808BD08B50820AE
:10C380001421044A00F09CF8002801D000F07CF849
:10C3900008BDC046902C0020802238B5334BD20512
:10C3A000D458B13C61424C41E4B2002C01D0002190
:10C3B000D1502F4B1A68F0239B029A4202D00020E2
:10C3C00000F062F880235B051A698023DB009A4243
:10C3D00002D0002000F058F800200521254A264B05
:10C3E00000F0BCFB002801D000F04EF800F0D6FDB4
:10C3F00000F020FE002810D000F02BFE002801D015
:10C4000000F042F8FFF768FFFFF7B8FF00F046FEC4
:10C41000002806D000F038F803E0FFF75DFFFFF7D3
:10C42000ADFF164D002C06D000F0D2FD002807D03D
:10C4300000F02AF804E0286800F00AFD0028F3D094
:10C44000286800F005FD002807D000F0F3FD002863
:10C4500003D10A4B186800F0C7FDBFF34F8F084A9D
:10C46000084BDA60BFF34F8FC046FDE71C050000A4
:10C4700014100010282E002049CD030008300000C1
:10C480000400FA0500ED00E01FB5002101AA90604C
:10C4900003481180516000F005F805B000BDC046AA
:10C4A00001400000BFF34F8F034A044BDA60BFF333
:10C4B0004F8FC046FDE7C0460400FA0500ED00E0DE
:10C4C00010B503240723144010D1094B1A604B1CEC
:10C4D000DB009BB2D218074B1A60074B1C70074B4E
:10C4E0001C70074B1880074B1980231C181C10BDAB
:10C4F000F02F0020F42F0020FB2F0020FA2F002027
:10C50000F82F0020FC2F0020F0B5284B87B00292B6
:10C510001A8801900E1C039309208A4244D30024F8
:10C5200004ABDD1D281C2C7000F01AFC204B214AA6
:10C530001B782149DBB29C4613780988DBB2201CAA
:10C540008B4201D20133D8B21C4F3C1C604509D04C
:10C55000147813780022DBB28B4201D20133DAB2B5
:10C56000144B1A70287800F019FC0420BC421BD030
:10C57000134F029A3B68E5005B191A60019A002A82
:10C5800010D0002E0ED0039B111C18880D4B444375
:10C590001868321C001903F000F93B6800205D198F
:10C5A000AE8001E00020988007B0F0BDF82F002099
:10C5B000FA2F0020FB2F0020FC2F0020FFFF00009F
:10C5C000F02F0020F42F002010B51049104A0B78EE
:10C5D00012789A4219D00F480B780A780488D2B2A0
:10C5E000DBB20020944201D90132D0B20A4A08706D
:10C5F00010880A4A58431268DB001018084A12686B
:10C60000D31899881B689847DFE710BDFA2F0020E0
:10C61000FB2F0020FC2F0020F82F0020F42F0020FB
:10C62000F02F002010B5437882780133DBB2D21AA4
:10C63000041C501E824152421340227800209A422C
:10C6400005D00B701823607843436068C01810BD94
:10C65000EFF30581C905C90D0220002924D0103946
:10C66000CBB25AB2002A0BDA0F221A40083AC24063
:10C6700082400E49521803210B4052688B4007E05C
:10C6800092080B4BC0329200D25803230B40DB00C0
:10C69000DA40D3B29B09DBB20020012B04D0033B6C
:10C6A0005A425A410230801A7047C04618ED00E0E5
:10C6B00000E100E08022194B9202DA67D221802249
:10C6C000174B520289005A5040395A5001212F22EB
:10C6D0005960101C0138C046C046C046C046C0461E
:10C6E000C046C046C046C046C046C046C046F1D15E
:10C6F000996000230B49101C0B600138C046C046EE
:10C70000C046C046C046C046C046C046C046C046F9
:10C71000C046C046F1D1044A1370704704E100E0FE
:10C7200000100140003000202030002070B50024AF
:10C73000224B5C649C64DC641C655C609C60204BE8
:10C740001B68A34239D01F491F4A8A581F490D68E8
:10C75000551B2D022D0A1A6895421AD3AD1AA4183A
:10C760001A7CDE69002A10D000221A74184A126856
:10C77000002A07D0586999699047002805D0FFF72B
:10C7800083FE02E05A6998699047002E01D0331C5D
:10C79000E1E7104B104A197813788B4205D1013329
:10C7A000DBB2022B00D10023137013780B4A9B00DD
:10C7B0009C5080220A4B52035A6070BDFC1001400D
:10C7C000043000200010014004050000003000206B
:10C7D00008300020143000201530002018300020D0
:10C7E000FCE100E0F0B5BF48BF4A0368BF4989B02B
:10C7F000049309781378994211D00133DBB2022BEC
:10C8000000D1002313701378B94A9B009958049BF8
:10C81000CB181B021B0A03600123039301E00021D4
:10C820000391B44B1B680593B34B1B780193B34B37
:10C83000019A1B6802920793AA4B1E68B04B1B78A3
:10C840000693059B02980138C2B20292FF2A2DD0AE
:10C85000029AD400079A1419227865789542F1D08B
:10C8600018255543A77801326068D2B2BF1A45191E
:10C87000381C471EB84147423A402F78022F02D059
:10C88000032FEAD10CE09C461F1C6D68604600280F
:10C89000E3D0AC4500D148E16746F8698446F5E746
:10C8A000002BDAD000251D74DB69F9E76846944A4D
:10C8B000007E8C4C10708F4D039A26602B60002AEE
:10C8C00007D1059A03989B1A5A1E9341DBB29C46E6
:10C8D00022E00020061C002B1AD01A68914204D2D4
:10C8E000511A2B601960012315E0891AB61800222D
:10C8F000DF681A60DA699446002F07D0D861181CE7
:10C90000049A9F60B2181202120A5A606346E2E764
:10C91000784A136001339C46764B1B680293774B31
:10C92000029A1B68059323680393754B1B78069343
:10C93000019B013BDBB20193FF2B6AD0019BD90025
:10C94000059B5918002802D0031CC06922E00B780F
:10C950004C789C42ECD018245C434D6801332C1970
:10C960008D78DBB20B709D4200D108702678636829
:10C97000151C012E4BD11E7C002E48D1A5685D6090
:10C98000E5689D602569DD6064699C61069C002CFA
:10C9900000D05E605C68039D5A4F651B2D022D0A16
:10C9A0009E68BD4202D8AD191D600AE0039D2C1B94
:10C9B0002402240AA64202D9361B1E6001E000248C
:10C9C0001C60002401255C601D749C60DC611D1CE2
:10C9D000A2421CD01D681468A54204D8651B1560CE
:10C9E000DA611D1C13E0141C04922768BD4206D9AD
:10C9F000E669ED1B0494002E05D0341CF5E77F1B7F
:10CA0000261C2760049C1D60151CDE61E3612A1C46
:10CA100098E7384B1A60029B9A4203D16346002B79
:10CA200000D17DE0002A00D178E0374837492D4B0E
:10CA30000C581B681568364EE21A1202120A377833
:10CA4000033201920290002F1FD18020D127400293
:10CA5000BF00C851403FC851C02280272D48BF02A7
:10CA600052008750076001272F200F600138C04611
:10CA7000C046C046C046C046C046C046C046C04686
:10CA8000C046C046C046F1D13770019AAA4200D2D2
:10CA90002A1CA820D3181B021B0AC0000B50029AA4
:10CAA0001A4D8958091B0902090A1C1B240203316B
:10CAB000240AA14234D9144BEB582B502F200138B3
:10CAC000C046C046C046C046C046C046C046C04636
:10CAD000C046C046C046C046F1D180220E4B9202ED
:10CAE0005A601DE000300020143000201530002076
:10CAF00018300020043000200C30002010300020BE
:10CB000016300020FEFF7F000405000000100140E9
:10CB10002030002000E100E0FCE100E0FFF7CAFD6A
:10CB200000220C4B1A7009B0F0BDAF4207D1DB698F
:10CB3000002B04D10120084EB0601E1C069028680E
:10CB4000ED698446FD61002D00D186E628686044C9
:10CB5000286082E61630002000100140F7B5032758
:10CB600000900D1C141C019307203A4241D1214E24
:10CB7000002A01D132603CE0FFF79CFD1E4B019A78
:10CB800034601A601D4B18221F70231C1833191CA7
:10CB90006A430020636020706070A57008349B18A1
:10CBA0008C42F6D18021C022C524FF25144B4903B5
:10CBB0001860144B52001870134BA4001870134BDC
:10CBC00099501A59AA433F3D2A431A51A12219608C
:10CBD000009C0F49D2008C50C424A4001D590D4A5A
:10CBE0002A40C0252D022A431A510B4BCA580B4B21
:10CBF0001A60FEBD10300020083000200C300020EC
:10CC000004300020143000201530002000E100E046
:10CC100000100140FF00FFFF04050000003000206D
:10CC200010B50A4B1C680823002C0CD0013B002ACD
:10CC300009D0002807D000680133047C002C02D101
:10CC4000231C41744261181C10BDC04610300020E6
:10CC5000F0B51D4B051C1E6885B00820002E30D095
:10CC6000002D2ED0013804292BD96B690130002BFF
:10CC700027D06B7C0027012B00D10F1C0192009163
:10CC8000FFF7E6FC02ABC0003418DE1D201C311C8F
:10CC9000FFF7C8FC031C0420002B12D001220B4913
:10CCA0001A700B4A5D608A5800209A60009A1F61D2
:10CCB000DA60019A5A618022337852036370054B1F
:10CCC0005A6005B0F0BDC046103000200010014091
:10CCD00004050000FCE100E0F7B5134B1F680823D2
:10CCE000002F1ED000281CD04269002A19D000262F
:10CCF0000674051CFFF7ACFC6B46C0003C18DF1D3A
:10CD0000201C391CFFF78EFC0423B04209D080227E
:10CD1000023B03703B7845606370044B52035A60DA
:10CD2000331C181CFEBDC04610300020FCE100E0A2
:10CD300010B5041C082902D00020FFF7A5FB2368CA
:10CD40006068984710BD000007B5044A0090019143
:10CD500068460821FFF7D8FB0EBDC04631CD030061
:10CD600070B5EFF3108672B6094B0122596800299D
:10CD700008D1084C5A60E26F074D2A401A60E567F7
:10CD8000017000E00270002E00D162B670BDC04696
:10CD90009C34002004E100E0FC06FFBC10B5084A0A
:10CDA0005368002B0BD0002809D1EFF3108372B623
:10CDB000044914680C605060002B00D162B610BDAD
:10CDC0009C34002000E100E048DF704711DF70472D
:10CDD00013DF704708B5074B1878012803D10129E4
:10CDE00001D101311970002A02D0101CFFF74CFB51
:10CDF00008BDC0462130002008B5FFF7E5FF002838
:10CE000001D0FFF741FBFFF7DFFB034B1B78023B31
:10CE1000022BF2D808BDC0462130002010B50A4CC4
:10CE20001C21201C01F0C4FB002801D0FFF72CFBC3
:10CE3000201C06491C22002301F0AAFB002801D077
:10CE4000FFF722FB10BDC0464030002024300020F8
:10CE500007B50368013301D1002016E001A800F0F6
:10CE60004BF9019B1A78012AF6D100225988914288
:10CE700005D006490868996800F062F9021C019B18
:10CE80005888801A42425041C0B20EBD083000009E
:10CE9000844684B0F0B585B01D1C0D936346C4B2C2
:10CEA0000A901B0C03A80F1C0B91161C0C920193EB
:10CEB00000F022F9002C09D16A46364B9288FF21F6
:10CEC0005A8001229D601A70197140E0012C14D122
:10CED0006A46304B9288DF605A80F21952199A6084
:10CEE000A5221A705A321A710E9A1E615D619A61FA
:10CEF000294B1C70FFF792FF47E0032C0ED1039AD9
:10CF0000244B117819705188926859809A60AA222E
:10CF1000DF601A711E615D61A93A18E0022C19D117
:10CF2000039A1C4B1178A52905D100225A809A60DA
:10CF3000FF321A7004E019705188926859809A6023
:10CF4000FF221A710022DA601A615A610132124B13
:10CF50001A70CFE7052C07D100F0EEFF002801D0B2
:10CF6000FFF792FA03220EE0042C09D10022094BAC
:10CF70005A809A60FF321A70039A12791A71B9E7CF
:10CF8000062C02D10422044B1A7005B0F0BC08BC78
:10CF900004B0184724300020213000201FB50021A4
:10CFA00001A80C22FFF734F9074B019301F0BAFAFC
:10CFB000002806D1FF2305499B0201A84B6001F020
:10CFC000D3FA05B000BDC046D5CD030040300020E7
:10CFD00010B500F023FA002805D100F005FF041C6D
:10CFE000FFF70AFF201C10BD10B5FFF7EFFE002869
:10CFF00001D0FFF749FA0C4B1968002301229A402F
:10D00000114201D00948C2670133202BF6D1084CE8
:10D010002068FFF7DDFE002801D0FFF735FA206811
:10D0200000F070F810BDC04600E100E004E100E04F
:10D030000830000007B501A800F05EF8019B012050
:10D040001A78A52A04D01879AA3843425841C0B2A8
:10D050000EBD10B500F026FC002809D0642001F0B8
:10D0600077F900F08BFB002807D0FFF70DFA04E0FA
:10D0700000F0F2FB0028F1D10FE000F013FC0028D3
:10D0800001D0FFF701FA00F0C5FB041C0020844228
:10D0900003D0201CFFF7F8F9201C10BD10B588B094
:10D0A00003AC201C00211422FFF7B2F802232370E6
:10D0B00000230434009303980ECCFFF7E9FEFFF73A
:10D0C0009BFE002008B010BD13B5041C01A800F0A1
:10D0D00013F8019B1A7822705A8862809A68A260BD
:10D0E0001A792271DA68E2601A6922615A6962610A
:10D0F0009B69A36113BD0000014B03607047C046EC
:10D1000000FC0300F0B5031C186880F30888586819
:10D11000FF2464B2EFF30585002D01D1A646004738
:10D12000251C061C21273FBAF0B400240025002648
:10D130000027F0B4F92040B20047C046F0BDC04619
:10D1400030B5002A01D0138800E00B4B051C4118B4
:10D150008D420FD02C785BBA9BB263401A1CDBB2B5
:10D160001B095340180343409BB2DAB252015340AB
:10D170000135EDE7181C30BDFFFF000018DF7047D8
:10D1800070470000F8B50D1C141C1E1C012902D0AC
:10D1900003290AD019E0104B1B78052B15D10F4B32
:10D1A00004201B68002B0DD10FE00B4F3B78022BA6
:10D1B0000BD10B4B5B689847084B3D701B68002BED
:10D1C00003D0281C211C321C9847002C02D0201CA4
:10D1D000FFF75AF9F8BDC046503000204830002013
:10D1E00098300020012200B5074B89B01A7003ABBC
:10D1F00004321A70079A039800920499059A069BC4
:10D20000FFF746FE09B000BD5C300020032300B5E7
:10D2100089B003A80370074B1B884380064B07980F
:10D2200059689A68DB6800900398FFF731FE002088
:10D2300009B000BD4E30002088300020012200B52A
:10D2400089B003AB1A70084A12885A80074B0398BA
:10D250001B680093064B59689A68DB68FFF718FE55
:10D26000002009B000BDC0464E300020083000004C
:10D270008830002010B588B003AC201C0021142297
:10D28000FEF7C6FF042323700023043400930398A1
:10D290000ECCFFF7FDFD08B010BD0000022208B55E
:10D2A0000A480B4B18600B4B1A700B4B1968F02394
:10D2B0004942C90AC9029B02C918490801F078F914
:10D2C000002801D0FFF7E0F808BDC046603000201C
:10D2D000243100205030002008300000022208B520
:10D2E0000648074B1860074B1A70074B196801F086
:10D2F0005FF9002801D0FFF7C7F808BD54300020BF
:10D3000024310020503000202C31002070B5154C05
:10D31000154D88B0201CE96801F04AF9002801D0B9
:10D32000FFF7B2F8114B201C5968EA68002301F09E
:10D330002FF9061E12D103AC311C1422201CFEF75B
:10D3400067FF0B4B22691B8826706380EB6803988C
:10D35000E36000926168A268FFF79AFD301C08B094
:10D3600070BDC0465430002088300020603000205E
:10D370004E30002010B50E4B08201B78002B15D125
:10D380000C4C201CFFF7A8FC002801D0FFF77CF80C
:10D39000F021201C89030022FFF75AFC041C002006
:10D3A000844203D0201CFFF76FF8201C10BDC0463C
:10D3B0005C30002068300020F0B51F1C032385B0CE
:10D3C000061C0190940868460D1C0093029103947A
:10D3D000FFF7D4FE00281ED080235B019D4212D8A7
:10D3E000012368460093019602950394FFF7C6FE59
:10D3F000002810D1032368460093019602950394F8
:10D40000FFF7BCFE07E0F01BE91B3A1C3B1CFFF7D3
:10D41000D3FF0028E4D005B0F0BD0000F0B5002631
:10D4200085B000210C2201A8FEF7F2FE1D4B1E4D17
:10D4300001931E4B291C1E701D4B01A81E8001F07C
:10D4400093F81C4C011EB14201D0267027E01A4B04
:10D450001A686A60194A101CC0CDC0C0F02518684F
:10D46000AD024342DB0ADB025B195B081B18536009
:10D470001348144AFFF7D4FB002801D0FFF704F843
:10D48000F021114889030022FFF7E2FB002801D0B8
:10D49000FEF7FAFF00210D4B196001232370081CD1
:10D4A00005B0F0BD85D10300543000204C30002081
:10D4B0004E30002050300020083000006030002046
:10D4C000E0F70300E5D10300683000202831002098
:10D4D000014B18607047C046483000202A4B70B599
:10D4E000191C426831CA31C112680A6019784A07AA
:10D4F00002D506248A0745D1032558680624284208
:10D5000040D19E682E423DD1DA682A423AD1F023BA
:10D5100030181E4D82182A6024199B019E4231D872
:10D520001B4BC8070CD51968F0239B025B1A9A4263
:10D5300028D8184B184A1A60184A5A60184A13E03B
:10D54000F0201B6880025B42DB0ADB021B185B08D1
:10D550009A4217D80F4B134A1A60134A5A608A0727
:10D5600001D5124A00E0124A9A60124B08241B7837
:10D57000012B07D1FFF7FEFE041E03D1054B2868DF
:10D580001B689847201C70BD883000202C3100207B
:10D590000830000098300020DDD2030075D203006F
:10D5A0003DD203009DD2030081D103000DD20300C0
:10D5B0000DD3030050300020F8B5041C0E20002CC1
:10D5C0002ED0A36802309B072AD1164B1B78052B5F
:10D5D00025D16368144D154F9E002B683A68F318E7
:10D5E000934204D901235B422B60043818E0FFF713
:10D5F000C1FE002814D10E4BA1681868321C2B689C
:10D6000000F0C6FF00280BD12B680930F6183B68E4
:10D610002E60F61A731E9E417642304000E00820CC
:10D62000F8BDC04650300020283100202C310020A9
:10D630002431002070B50C4B1C68002C10D10B4E0F
:10D640003378042B0CD10A4D0A48297800F05CF994
:10D65000002802D10523337003E02C70041C00E085
:10D660000824201C70BDC046283100205030002006
:10D670004C300020A4300020F8B5154B1A78032A4E
:10D6800002D0042A02D01BE004221A70114B1C683D
:10D69000002C15D1061CFFF76DFE002812D173680F
:10D6A0000D4F9D003B785A19802A0DD80B482A1C33
:10D6B000C018B16802F071F83B78ED183D7004E0D5
:10D6C000082402E0041C00E00924201CF8BDC04628
:10D6D00050300020283100204C300020A4300020A1
:10D6E00038B50E4C08202378052B16D10C4D0D4B68
:10D6F0002A681B68082093420FD106232370FFF786
:10D7000039FE002809D1084B29681B68586800F0C9
:10D7100045F9002801D10723237038BD503000207F
:10D720002C310020283100202431002008B5084B7E
:10D7300008201B78072B09D10648FFF7CDFA0028EF
:10D7400001D0FEF7A1FE044B9B68984708BDC04678
:10D75000503000206830002098300020062200B5AC
:10D7600089B003AB1A70079A039800920499059A3E
:10D77000069BFFF78DFB09B000BD0000F0B58DB032
:10D7800005A8FFF7A1FC089C002C3BD080230B9D33
:10D790005B01E318AB4229D91C4BEE181C4B7608F1
:10D7A0001B68A34209D3802372005B01D118501972
:10D7B000331CA21AFFF700FE23E0802301275B0140
:10D7C000F31801A80197029303930497FFF7D6FC7F
:10D7D000002816D1802301A85B01019702930393CF
:10D7E0000497FFF7CBFC00280BD1DCE70123019362
:10D7F0008023A4085B0101A8029503930494FFF71A
:10D80000BDFC041C201C0DB0F0BDC04600F0FFFFA5
:10D810000830000000B58DB005A8FFF755FC099849
:10D82000002815D0089A0B9B002A08D1F021094B3B
:10D8300089021A685342DB0ADB025B185B08D318C3
:10D8400000228008039001A801920293FFF796FC42
:10D850000DB000BD0830000000B58DB005A8FFF781
:10D8600033FC0998002818D0089A0B9B002A08D18D
:10D87000F0210B4B89021A685342DB0ADB025B186A
:10D880005B08D31803220192F022800892020490D0
:10D8900001A802920393FFF771FC0DB000BDC046D2
:10D8A0000830000010B58CB005A8FFF70DFC0898F3
:10D8B000002823D080230B9C5B01C318A34210D9FE
:10D8C0000F4B1B68834218D380210E4B4901E3188C
:10D8D0005B085A0014195118821A201CFFF76CFDBE
:10D8E0000CE003230193802380085B01049001A8CE
:10D8F00002930394FFF742FC00E00E200CB010BD31
:10D900000830000000F0FFFF38B50B2901D80920CE
:10D9100036E003891B4C04335B00C3180233C21A80
:10D920005218D2B22270012AF1D941188B42EED896
:10D93000191C041C144801F030FF144B144A1988B8
:10D94000914203D025880B208D4219D15B889342E8
:10D9500003D062880B209A4212D1002321898B4286
:10D960000BD25A00A21852890A48824207D00A48AC
:10D97000013300888242F2D101E00B2000E0002058
:10D9800038BDC0463A3100203031002080100010F0
:10D99000FFFF0000FEFF00000C30000008B5002271
:10D9A000FFF7CEFB021C06494B7808781B020343A5
:10D9B000D31A5A1E93410B205B42184008BDC04643
:10D9C00030310020021C4378180293781B04034373
:10D9D00010781843D3781B061843704770DF7047E0
:10D9E00071DF704773DF704774DF704776DF704711
:10D9F0007ADF70477CDF70477FDF704786DF7047D4
:10DA0000A7DF7047A8DF7047A9DF7047AADF70471C
:10DA100067DF704700B50C2814D801F009FE151314
:10DA20001313131309130713130D0B0002200CE03B
:10DA300003200AE0042008E0081F41424841062371
:10DA4000181A02E0062000E0012000BD08B5FEF72C
:10DA50001BFD08BD08B5FEF717FD08BD10B5041C79
:10DA6000081C0321FFF7D6FF0321021C201C01F034
:10DA700057FB002801D0FEF707FD10BD70B50F4B16
:10DA800090B09B7901AD02ACAB700D4B061C002130
:10DA9000201C38222B80FEF7BBFB022300212370C1
:10DAA000201C013BA170E6702381E56001F050F875
:10DAB000002801D0FEF7E8FC10B070BD5031002006
:10DAC0003015000010B5141C03281BD0042826D1E3
:10DAD000002908D0124B1888124B98421FD01321EE
:10DAE000FFF784FF17E0101C00F0C6FB002801D0F0
:10DAF000FEF7CAFC0C4B1B68A34210D10B48032154
:10DB0000012206E0081C0121FFF784FF0121021C0D
:10DB1000064801F005FB002801D0FEF7B5FC10BD5A
:10DB2000602C0020FFFF0000403100205031002019
:10DB3000F0B5294B8DB01D780193002D49D1274CAC
:10DB4000291C201C1822FEF763FB254B1E78002E93
:10DB50002CD0291C102204A8FEF75AFB214804A946
:10DB60001022214F01F00AFE061E08D10520FFF702
:10DB700085FF012367602370267226821EE0194B01
:10DB800008AE02930123337103AB089301230420F1
:10DB9000337302AB0A930397FFF770FF02232372DC
:10DBA00026332570E6602382658208E00620FFF7B1
:10DBB00065FF282326706660267223826682201CF9
:10DBC000FFF710FF002801D0FEF75EFC0123019A49
:10DBD00013700DB0F0BDC0463C310020CC310020A8
:10DBE0003B3100208D3100208631002070B5041CAF
:10DBF000B0B001F09DF87248211C01F0C3FA2388EF
:10DC0000142B00D197E02DD8102B38D008D8022B38
:10DC100000D0D2E06B4B00211888FFF7F9FE97E0A7
:10DC2000112B33D0132B00D0C7E0674C03AE211C5F
:10DC300007A8072201F0B1FDE11D301C102201F000
:10DC4000ACFD211C09AD1831281C1C2201F0A5FDDA
:10DC50005C4B852118885D4A10AB15961495FFF72B
:10DC6000CBFE75E0512B52D004D81A2B73D01B2B4E
:10DC700030D0A2E0522B6ED0552B21D09DE0A2884F
:10DC8000504B1A800022524B1A7096E080233221AA
:10DC900009AA13804B4C4F4B2088196010A901230F
:10DCA000FFF7B4FE002801D0FEF7EEFB4A4B1B78CD
:10DCB000002B01D1FFF73CFF01235B4223807CE076
:10DCC000A379002B00D078E03E4B13211888FFF792
:10DCD0008DFE3DE0237A002B6FD13D4A13703D4B02
:10DCE0001A68511E196000290ED110AC201C142294
:10DCF000FEF78EFA052323702369043400931098ED
:10DD00000ECCFFF7C5F858E0FFF712FF55E0A379F6
:10DD1000002B52D0A27B043A022A4ED810A9022B23
:10DD200000D001230B70C1235B008B80254B18882A
:10DD3000FFF768FE0CE0244A208A538D00219842A8
:10DD400001D1111C1831A08807320023FFF756FEBD
:10DD5000002832D02CE01B4B204D1C88AC422AD02E
:10DD60001F4B201C1B78002B1BD017490822343175
:10DD70000123FFF749FE021E19D1111C201C0223AA
:10DD8000FFF742FE021E12D12A1C201C0C21FFF7B5
:10DD900037FE0222134BC31893430ED0082804D138
:10DDA0000BE0191C1A1CFFF72FFE021E05D0101CD9
:10DDB000FEF76AFB01E00822F9E730B070BDC0460B
:10DDC00050310020602C002086310020803100205E
:10DDD0003C310020642C0020E4310020FFFF0000D3
:10DDE0003B310020FECFFFFF002330B5454A89B00C
:10DDF0001370454A4548137001F098FB00287ED106
:10DE00004348FFF765FB00F0FBF9002877D1414854
:10DE1000FEF742FA01AC002803D101223E4B1A70F2
:10DE200011E0201CFFF7DCFD002801D0FEF72CFBE1
:10DE3000637800200133211C6370FFF7CFFD0028B9
:10DE400001D0FEF721FB6A461123344D1370281CC4
:10DE500001F0ACFC291C82B26846FFF7CBFD00281C
:10DE600001D0FEF711FB201C00210822FEF7D0F99B
:10DE70000C232380DB1863800023A3809133FF33BE
:10DE8000201CE380FFF7B4FD002801D0FEF7FCFA68
:10DE90000021201C0C22FEF7BBF908232380204B15
:10DEA00020486360204B211CA36000F0A3FF0028E2
:10DEB00001D0FEF7E9FA1C22201C0021FEF7A8F988
:10DEC0001A4A002362608022D201A26003220193D9
:10DED000E38123746361164B201C2273A36100F05D
:10DEE000E7FE002801D0FEF7CFFA3022114B1A705E
:10DEF000293A5A7009329A70FFF71AFE002009B0C9
:10DF000030BDC046E43100204C310020EDDB030081
:10DF1000C5DA0300863100203B310020E4F703001E
:10DF200095DF0300503100204DDA0300CD0C0000D6
:10DF300055DA030080310020012210B5114B1A7010
:10DF4000114B1888114B984207D01321FFF74EFD53
:10DF500000280FD0FEF798FA0CE00D4B1A781C1C25
:10DF6000002A07D0FFF740FD002801D0FEF78CFA09
:10DF70000023237000F0D4FE002801D0FEF784FABD
:10DF8000002010BDE4310020602C0020FFFF0000C5
:10DF90003C310020F0B50B7889B0092B00D91CE189
:10DFA000051C181C0C1C01F04DFB28002F00420022
:10DFB0000A00130021000101090146000F01FFF7CB
:10DFC0008FFB0421FFF726FD0421021C281C2BE0F7
:10DFD000FFF7B2FF002801D0FEF756FAFFF7A6FBC5
:10DFE000002800D1F9E0FFF7B9FBF6E0FFF7A4FF46
:10DFF0000028F8D0FEF748FAF5E70122784B1A70AE
:10E000004B681A78774B14E00226754B1E704B68EC
:10E010001B78012B00D0E0E0FFF70CFB311CFFF771
:10E02000F9FC021C281C311C01F07AF8D1E0032213
:10E030006B4B1A70D1E06A4B1E78022E2DD0032E46
:10E0400054D0012E00D0C8E004AF00211022381CAB
:10E05000FEF7DEF8634B0C221B7801A800213B7011
:10E06000FEF7D6F8032202970192237A0C2BD9D11E
:10E070006468201CFFF7A6FC7860201DFFF7A2FC57
:10E08000B860201C0830FFF79DFCF86001A8FFF77E
:10E0900025FA002800D1A0E0C0E70B7A032119403F
:10E0A00010D05A1A0432D2B29446181C0027626863
:10E0B000461C1754F0B26045F8D10133DAB2531A56
:10E0C0000333237201230493636804A80693237A1D
:10E0D0009B080593FFF7D0FA002800D17DE00221CC
:10E0E000FFF798FC0221021C281C9DE7087A3042A9
:10E0F00003D0281C311C321C96E73B4E0190311C8A
:10E1000000F092F8011E0FD16168019A306801F0A9
:10E1100044FB019800F0ECF8011E05D101A9301C68
:10E1200000F0F4F8011E01D0281C3CE00423049305
:10E13000019B04A89B08059333680693FFF73CFAFC
:10E14000071E08D1294A237A11685B1813603268C8
:10E15000274B1A6041E009281BD1244B217A1A6809
:10E1600089181960234B1B78002B36D0224A13885C
:10E17000141C013B9BB21380002B2ED1281C00F0F5
:10E1800097FF002801D0FEF77FF91C4B1B882380E6
:10E1900023E0306800F070F8011E02D0281CFFF761
:10E1A0005DFC281C391CFFF759FC16E00122114BBD
:10E1B0001A708B88114A13800F4A03E000230D4A1E
:10E1C00013700E4A138008E0084B281C196800F0F1
:10E1D00035FF002801D0FEF757F909B0F0BDC04661
:10E1E0004C3100208531002048310020C83100200A
:10E1F00040310020C431002044310020C2310020D1
:10E200000020064B064A1870064B1A6008229860D8
:10E210005A60D860186158619861704724330020B3
:10E22000E83100200833002030B50E2200291ED02E
:10E230000025104B0D605C680A3AAC4217D00832DA
:10E24000202814D82420DA68013C0132DA601A69E7
:10E250005C6050431C682018086001219140986957
:10E2600001320143996107210A401A612A1C101CDE
:10E2700030BDC04608330020F7B51C4B061C9A6819
:10E280000420002A30D007215C691868A21A0A40CD
:10E29000111C24254D434519AE420DD10C1C012102
:10E2A000A140986941400020996199699F68019156
:10E2B00059688C46391C0CE0072501312940A142E0
:10E2C000E7D11020F1E700290CD00722651C0139A5
:10E2D0002A40012696406546321C019EED196D1AB2
:10E2E0001642F0D099605D60FEBDC0460833002044
:10E2F00005490B6909685A1E07231340242253431A
:10E30000CB181862002070470833002030B50E2269
:10E31000002818D0002916D00C4B0A3ADC68002CD3
:10E3200011D09A68013C01329A602422DC605C6959
:10E330001D686243AA180260126A01340A6007224B
:10E34000144000225C61101C30BDC0460833002020
:10E3500082B00190019B002B12D0019B0948013B28
:10E3600001930138C046C046C046C046C046C046BC
:10E37000C046C046C046C046C046C046F1D1E9E7E7
:10E3800002B07047E703000029DF704728DF7047BD
:10E390000B1C37B5021C181CC9685D688C00197805
:10E3A0000095034D0C3064595B69A04737BDC046EA
:10E3B0001C34002038B51823184C22785A43A21870
:10E3C000151C13790835E868012B0DD0032B23D1D8
:10E3D00080235B05196989B201F03EF9104B1B6877
:10E3E000C018FFF7D3FF12E00D4B6D681B689169F1
:10E3F00092689B024019D21AC918C018094B9A4258
:10E4000001D8920801E080225200FFF7BDFF0028EA
:10E4100003D10123A37000E00F2038BD2833002072
:10E4200028340020FF030000F8B5144D061C6F7857
:10E4300004200A2F20D02C783C19E4B2092C01D9F1
:10E440000A3CE4B2182044432C19201C0830A26175
:10E45000021C26710832C0C9C0C2A360069B43607B
:10E46000AB78002B01D0002003E0FFF7A3FF1128B9
:10E47000F9D06B7801336B70F8BDC04628330020AB
:10E4800038B5264A9378141C002B45D00021917092
:10E49000022808D003283FD1182311780D205943B2
:10E4A0005118043136E0157818226A431C48A21826
:10E4B00003689268013303609B02934219D30160A1
:10E4C0006378013B63706B1CDBB2092B01D92B1CF9
:10E4D000093B237018235D436519291D0020FFF7B0
:10E4E00057FF002302212B71AB6029616B61AB6187
:10E4F000EB606378002B0FD0A378002B0CD1FFF7D3
:10E5000059FF002808D0112806D018232178594334
:10E5100061180431FFF73CFF38BDC04628330020A6
:10E520002834002000230C4A13600C4A13705370E7
:10E530009370131DF4320020022118705860D960C6
:10E5400018615861986018339342F4D1044B1860F5
:10E55000044B18605860704728340020283300208E
:10E56000243400201C34002010B5074C04222368FA
:10E57000022B07D05A1C0B6022600168034A9B00E3
:10E5800099500022101C10BD243400201C3400209F
:10E5900037B5CC180C43051C1020A40707D11C1C50
:10E5A0000F38131C00940A1C291CFFF73DFF3EBDC9
:10E5B00013B50022041C0B1C0092211C0320FFF742
:10E5C00033FF16BD71DF704772DF704779DF704728
:10E5D0007DDF704765DF7047F0B50025061C2F1CF6
:10E5E00089B001930EAB10CB04911B880392059365
:10E5F0002388029333889F423DDA7368B900591823
:10E60000042207A801F0C9F806AB07A8D91C00220C
:10E61000FFF7E0FF00283DD106ABDB78039A934279
:10E6200025D16A426A4103992388520059188A18F1
:10E6300005998A421DDC002D09D169460133019AF2
:10E64000097C9BB22380D15423880133238006ABFD
:10E65000DD1C2288019B07A89A18291CFFF7BAFF26
:10E66000002817D12A7801252388D3182380013761
:10E67000C0E70C200EE0002085420BD02388029AD0
:10E68000013B9B1A9BB20C30FF2B03D80020019A50
:10E690000299535409B0F0BDF0B51C1C85B00AAB0B
:10E6A00080CB03921E88022200970196231C051C32
:10E6B000FFF792FF002807D100970196281C0399C5
:10E6C0001022231CFFF788FF05B0F0BDF0B5031C36
:10E6D000108887B0029000201080586B002814D05A
:10E6E00004780298022800D8EEE102201125087073
:10E6F0001088013080B210800D541088013080B233
:10E7000010800C541088013010801C6B002C05D137
:10E71000181C2E300578002D47D01EE01088029E70
:10E72000051C1235B54200D9CEE111250D541088D3
:10E73000013D013080B210800D54108801301080EE
:10E74000201C013C0F300678158801384E5515887D
:10E7500001351580A042F6D1DAE71488029FE61C45
:10E760000C20BE4200D9EBE102260E551488103071
:10E770000134A4B2148008551488013D0134A4B2B8
:10E7800014801538032D00D9DAE1281C00F050FF61
:10E7900002040608002004E0012002E00E5501E01A
:10E7A000032008551088013010801F1C2D331B7862
:10E7B000141C0D1C002B03D1BB78002B52D02EE073
:10E7C0001388029A09330C20934200D9B8E104AEB1
:10E7D000301CFFF7F7FE002800D0B1E10822092124
:10E7E0002388EA542388133201339BB22380EA54EE
:10E7F000208802AB013080B22080C918153A281851
:10E8000000F0CBFF2388327806339BB22380002AA6
:10E8100000D00122EA54238801332380CCE72388E7
:10E82000029A04330C20934200D989E104AE301CD3
:10E83000FFF7CCFE002800D082E103222388EA54AF
:10E840002388163201339BB22380EA54238832880E
:10E8500001339BB22380EB181A70120A5A70238876
:10E8600002332380FA78002A15D023880298D91C15
:10E87000814200D928E10221E9542388013901337A
:10E880009BB22380E95423885B189BB22380EA540F
:10E8900023885B1823807B68002B16D01A78238886
:10E8A0000298D91C814200D90EE10221E954238843
:10E8B000083101339BB22380E954238801339BB292
:10E8C0002380EA542388013323803B89002B03D122
:10E8D0003B8A002B1AD00CE0381C029B0094019359
:10E8E0000830022106222B1CFFF7D6FE0028EFD0AD
:10E8F00026E1381C029B009401931030032107226B
:10E900002B1CFFF7C9FE002800D019E13B8B002B20
:10E910000CD0381C029B009401931830142115224E
:10E920002B1CFFF7B9FE002800D009E13B6A002B41
:10E9300046D022880299944606320C208A4200D999
:10E94000FEE019880538052900D8F9E07D4A7E4E99
:10E950008A1892B2B24200D8F2E05A880392052A8D
:10E9600000D8EDE0774E9619774AB6B2964200D8B5
:10E97000E6E0764EB14205D0039AB24202D091420F
:10E9800000D9DDE0052261466A5412212288013255
:10E9900092B22280A9542288013292B22280198830
:10E9A000AA181170090A51702288023292B222808C
:10E9B0005988AB181970090A5970238802332380CB
:10E9C0007E6A002E31D0B38821881A1D52189446D1
:10E9D000029A0C20944500D9B2E09A1CFE2A00D974
:10E9E000AEE0FF2203336B54238801339BB22380B4
:10E9F000EA54238801339BB223803288EB181A70C3
:10EA0000120A5A70238802339BB22380B288002AEC
:10EA10000BD0B1680538002900D191E0E81800F06A
:10EA2000BCFE2288B388D31823803B1C2C331B7870
:10EA3000002B04D13B78181E00D181E03BE0BB6A7B
:10EA4000002B00D17BE0002303933B1C2C331B786D
:10EA5000039A9342EED90C20039EBB6A46439E194B
:10EA6000B3889A1CFE2A6BD822880333AB54162233
:10EA7000238801339BB22380EA54238801339BB25D
:10EA800023803288EB181A70120A5A7020880230DC
:10EA900080B22080B288002A09D0B16800294ED007
:10EAA000281800F07AFE2288B388D3182380039BAD
:10EAB0000133DBB2C8E73A880720012A40D0228818
:10EAC0000299901C884201D90C2039E0012B05D114
:10EAD0007B78029902339B188B42F5D8029E281846
:10EAE000023EB61AB3B202936B4604AE1B89311CC8
:10EAF0003380FFF76DFD002822D13B78022B05D132
:10EB00003388029909228B420AD905E0012B03D1EF
:10EB10007B78029A934201D96B461B890822338085
:10EB20003188FE29D0D823880131E9542388013364
:10EB30009BB22380EA542388C918218000E0072073
:10EB400007B0F0BD7FF3FFFF7DF30000FFFF000083
:10EB5000F0B593B06A461F2301AE971D0D1C33809C
:10EB60003B80002804D0C3785B0711D407201FE046
:10EB7000041C3080002D03D0EB78002BF6D10FE081
:10EB80002A1C3D8031783B78201CFFF71DFD0FE0EB
:10EB900002A9321CFFF79AFD02AC0028EAD007E078
:10EBA0003A1C281C0AA9FFF791FD0AAA0028E9D0FF
:10EBB00013B0F0BD75DF704776DF70477ADF7047BE
:10EBC0007BDF704737B5174B1888174B984227D013
:10EBD000164A174D13782C1C0133DBB21370297BB6
:10EBE000994208D31349FFF7E5FF002818D0AB6915
:10EBF000002B14D114E0002313702B7C002B08D0C1
:10EC00003B21FFF7D9FF002803D0AB69002B00D0D0
:10EC100098476369002B03D0002201A8027098472F
:10EC200037BDC04674340020FFFF0000363400209A
:10EC3000383400207634002037B5174B174A5B88EC
:10EC40001188174C174D99420CD852889A4209D313
:10EC50006369002B03D0012201A8027098470023AA
:10EC60002B7037BD2B78002B05D06369002BF6D0B5
:10EC700001A80022F1E70C4B1B78002B01D1616841
:10EC800000E0A16809480022FDF7E2FF0028E6D075
:10EC9000A369002BE2D1E2E72E3400207634002075
:10ECA000383400202C340020363400205434002026
:10ECB000144938B5021C0B1C32CA32C332CA32C3E3
:10ECC0001268114C1A600022104B01681A70201C47
:10ECD000914213D0083200F060FD201CFFF76EFF58
:10ECE00000280ED101220021094B52421A80094B03
:10ECF000094A0A481970FDF793FF02E0FFF760FF29
:10ED0000EEE738BD38340020763400202C34002063
:10ED10007434002036340020C5EB0300ECF7030008
:10ED200008B50248FDF7D8FF08BDC046543400209E
:10ED300010B50388112B19D002D8102B05D041E053
:10ED4000122B37D0502B20D03CE0011C82881E4B68
:10ED500018311A801D48082200F01FFD00221C4BAC
:10ED60001A701C4BDB8993422CD129E00122164BEF
:10ED700052421A800022164B17481A70FDF7ACFF5A
:10ED800000281FD0134B9B6910E0124CC188E28908
:10ED9000914217D1038A022B14D1837CDB070FD455
:10EDA0000D48FDF799FF00280CD0A369002B09D06E
:10EDB000984707E0011C08220831044800F0EDFCE8
:10EDC000FFF73AFF10BDC046743400202E340020F7
:10EDD000363400203834002054340020A0DF70473F
:10EDE000A2DF7047A5DF7047A6DF7047A8DF704736
:10EDF00063DF7047F0B50E2499B0002800D10EE112
:10EE0000002900D10BE14B68002B00D107E1012361
:10EE10005B420380029101908249102208A800F011
:10EE2000BCFC0A21804B06AD2B8004AB08A8C91896
:10EE3000FFF7DEFF041E00D0F1E0019B01201A1D48
:10EE4000291CFFF7CBFF041E00D0E8E0AB78019A45
:10EE500011AD9371211C1C22281CFDF7D9F9042245
:10EE60002B786C6013432B70019BEC602C616C6100
:10EE7000AC619B7904AA93736C4B05AF9381211C01
:10EE80000322381CFDF7C4F9002301223B70103324
:10EE900013437B70BB7805329343043A1343063225
:10EEA000934308320CAE93430F3A1343211C1332A1
:10EEB000301CBB70FDF7ACF907AB0C931423B38186
:10EEC000019B34817481346177609888291C321CDD
:10EED0000833FFF785FF041E00D0A0E0211C1C2290
:10EEE000281CFDF795F908222B786C6013439218C3
:10EEF00013432B70019BEC602C616C61AC619B79BE
:10EF000004AA93734A4B211C9381381C0322FDF7FA
:10EF10007FF900230F223B707B78211C93430E3A2C
:10EF200013430E321340013213437B70BB780A3A0D
:10EF30009343043A134306329343083213430F3A80
:10EF40001343301C1332BB70FDF762F907AB0C930F
:10EF50001723B381019B3481748134617760988871
:10EF6000291C321C1033FFF73BFF041E57D1211C14
:10EF70001C22281CFDF74CF902222B786C601343ED
:10EF80002B70019BEC602C616C61AC619B7904AAD5
:10EF90009373284B211C9381381C0322FDF738F909
:10EFA0000F223B78211C93430E3A13430E32134039
:10EFB000013213433B7000237B70BB780A3A9343C2
:10EFC000043A134306329343083293430F3A1343F0
:10EFD000301C1332BB70FDF71BF907AB3360022303
:10EFE00033810223B381029B74813361019B77607B
:10EFF0009888291C321C2033FFF7F2FE041E0ED124
:10F00000029B5B680393039A019B9A62029B9B6835
:10F01000002B01D0019AD3620122074B1A70201CE9
:10F0200019B0F0BDF0F703003015000032150000F4
:10F0300031150000341500007E340020F0B5061CA8
:10F0400087B00E20002E2AD03288164B06389A42FE
:10F0500025D0154B1B78002B21D0144C080AE170E9
:10F060002071080C090E0723A1716946102201279F
:10F0700002ADCB8060710021281C63702270A770E4
:10F08000FDF7C6F8338A30882B800023AB806B46AF
:10F09000291C0633AF70AB60EC60FFF7A5FE07B02C
:10F0A000F0BDC046FFFF00007E3400207F3400200A
:10F0B000F0B5061C87B00E20002E28D03288154BE4
:10F0C00006389A4223D0144B1B78002B1FD01123F3
:10F0D000124D02AC2B700B0AAB700B0CEB706B4635
:10F0E0009F1D05236970090E2971201C0021102223
:10F0F0003B80FDF78DF8338A308823800123A3708D
:10F100000023211CA380A760E560FFF76DFE07B018
:10F11000F0BDC046FFFF00007E3400207F34002099
:10F12000F0B5051C87B00E20002D23D02C88124B83
:10F1300006389C421ED0114B1B78002B1AD0104E63
:10F140001023717069468F1D032102AC3980B270A3
:10F1500000211A1C201C3370FDF75AF82B8A2888CE
:10F1600023800123A3700023211CA380A760E660F5
:10F17000FFF73AFE07B0F0BDFFFF00007E3400202D
:10F180007F340020F0B589B0002800D1BEE000290E
:10F1900000D1BBE0826A002A00D1B7E00B88112BB6
:10F1A0001AD004D8102B00D0B0E08B8816E00D1CCC
:10F1B000041C502B02D0512B12D0A7E0C988038920
:10F1C000994200D0A2E0082304A90B702B8A1235C3
:10F1D0000B724D60904799E001235B42038095E0FC
:10F1E0008A79022A00D091E00A89038A9A4200D0E3
:10F1F0008CE08B7B043B022B00D887E002230122AA
:10F2000004AF3B70BB7901AE1343BB710B8A07326D
:10F210003B814B8A301C7B810B1C00211433FB602B
:10F22000FCF7F6FF02233380002373806B46736084
:10F230002088A18A321CFFF7D5FD002804D0E36A9C
:10F24000002B0AD0984708E06B466A465B78127834
:10F250001B0213430122134207D1FE232088FF33F0
:10F26000391CBB80FFF7C2FD4AE0B880391C2088FA
:10F27000FFF7BCFD002843D1297D481E07283BD855
:10F2800000F0D6F9040E1B1D1F2138230023337014
:10F290006B8A012B02D8201C012108E0012308E021
:10F2A000012333706A8A9A4203D8201C0221062265
:10F2B00024E015353372756017E0022314E0032350
:10F2C00012E0042310E005230EE06B8A022B02D823
:10F2D000201C082111E0AB7D6A7D1B021343B38023
:10F2E00001D1073300E006233370A36A201C311CD0
:10F2F00098470BE00923F7E7201C0322FFF710FFD4
:10F30000002803D0E36A002B00D0984709B0F0BD75
:10F3100010B52D4B1A78012A19D12C4A1268120700
:10F3200015D12B4AE0241168F022081C104021421C
:10F330000BD128490968114209D12749274A116090
:10F340008021274A0902116001E03028F1D01A78A3
:10F35000012A0DD11D490968090709D1F0201C496E
:10F3600009680140402903D11A490968014223D0A4
:10F370001B68DBB2012B25D1144B1B681B0721D165
:10F38000134B1A68F0231A40A02A04D1114A1268BC
:10F390001A4203D016E0D02A14D1F7E7114B1A68AD
:10F3A000012A03D1C022104B1A600BE00F4A1A60E9
:10F3B0001A68012AFCD1F5E7C1218020C900C005E7
:10F3C0004250D5E710BDC046E00F00F0E40F00F05A
:10F3D000E80F00F0EC0F00F0DFFF07C0040500406D
:10F3E000186C004000EC064014EC064075930000D9
:10F3F00052DF704710DF704760DF704761DF704792
:10F4000008B5FDF74FF808BDF0B5254B85B01B7862
:10F41000002B43D0234D244E2B6834685A4253416D
:10F42000DBB2009363425C41E4B2009B002B33D11A
:10F4300003A8FFF7DDFF052808D0002802D0FDF75C
:10F4400023F805E003982B68984701E00123009317
:10F45000002C1DD1154B03A91B8801240B80144BD4
:10F460001B68181C0193FFF7C9FF071E052F09D061
:10F47000002803D0FDF708F8002403E00198336862
:10F4800098473C1C009B002BCFD0002CCDD005E032
:10F49000009B002B02D1C8E7002CDBD005B0F0BDEB
:10F4A00086340020903400209434002088340020DA
:10F4B0008C34002038B5041C0720002924D08D0787
:10F4C00022D1124801601249201C0A80114A1249B7
:10F4D0001360FFF78FFF051E16D101220F4B104955
:10F4E0001A70C5239B00CB585B0201D40D480BE07A
:10F4F00080240D4BE4035868002804D01A68281CA7
:10F5000022431A6000E00C6038BDC0468C340020F5
:10F51000883400209834002001F403008634002051
:10F5200000E100E0022000009C3400200E230028AF
:10F5300002D0024B18600023181C7047943400203E
:10F540000E23002802D0024B18600023181C7047BD
:10F550009034002008B5064B1B68002B05D0984757
:10F56000002804D0FCF790FF01E0FFF74DFF08BD35
:10F570009834002070B5141C051C0E1C101C0021B2
:10F580001422FCF745FE002201232261227B238006
:10F590009A43227326726572002D00D0A372002058
:10F5A00070BD000007B5044B69460193019B0093B1
:10F5B000FFF722FF0EBDC046002C002008B5002931
:10F5C00002D00020FCF760FFFFF71EFF08BD00001F
:10F5D000002008B5011C024AFCF796FF08BDC04692
:10F5E000BDF5030003210A4802680A430260094886
:10F5F00002680A4302600849084A094B9B1A03DD66
:10F60000043BC858D050FBDCFFF782FEFCF788FDB6
:10F6100024050040540500400CF80300002C002095
:10F62000742C0020FEE7FEE7FEE7FEE7FEE7FEE7BC
:10F6300002B4714649084900095C49008E4402BC85
:10F640007047C04603B47146490840004900095A52
:10F6500049008E4403BC7047002243088B4274D398
:10F6600003098B425FD3030A8B4244D3030B8B42C3
:10F6700028D3030C8B420DD3FF22090212BA030CCC
:10F680008B4202D31212090265D0030B8B4219D3AD
:10F6900000E0090AC30B8B4201D3CB03C01A5241CD
:10F6A000830B8B4201D38B03C01A5241430B8B4215
:10F6B00001D34B03C01A5241030B8B4201D30B03FE
:10F6C000C01A5241C30A8B4201D3CB02C01A524125
:10F6D000830A8B4201D38B02C01A5241430A8B42E8
:10F6E00001D34B02C01A5241030A8B4201D30B02D1
:10F6F000C01A5241CDD2C3098B4201D3CB01C01AEB
:10F70000524183098B4201D38B01C01A52414309F4
:10F710008B4201D34B01C01A524103098B4201D3E2
:10F720000B01C01A5241C3088B4201D3CB00C01A4F
:10F73000524183088B4201D38B00C01A52414308C7
:10F740008B4201D34B00C01A5241411A00D20146EC
:10F75000524110467047FFE701B5002000F00CF859
:10F7600002BDC0460029F7D003B5FFF775FF0EBCF8
:10F770004243891A1847C0467047C04630B5002436
:10F78000944208D0035D651C0C5DA34201D0181B98
:10F7900002E02C1CF4E7002030BD002310B593429A
:10F7A00003D0CC5CC4540133F9E710BD0023C25C24
:10F7B0000133002AFBD1581E70470000F8B5C0463F
:10F7C000F8BC08BC9E467047F8B5C046F8BC08BCFB
:10F7D0009E46704743000000002C002001000007F7
:10F7E000683000204466755461726700543400200C
:10F7F00023D1BCEA5F782315DEEF1212000000006F
:04F800000000000004
:08F804001CC9FF7F0100000098
:10F80C0000000000000000000000000000000000EC
:10F81C0000000000000000000000000000000000DC
:10F82C00D4F70300000000000000000000000000FE
:10F83C0000000000000000000000000000000000BC
:10F84C0000000000000000000000000000000000AC
:10F85C00000000000000000000000000000000009C
:10F86C00FFFF000032000000E9C00300C1C003002C
:04F87C000000000088
:020000020000FC
:020000041000EA
:0410140000C0030015
:040000033000F5E5EF
:00000001FF
